{
  "_format": "hh-sol-artifact-1",
  "contractName": "Game",
  "sourceName": "contracts/Game.sol",
  "abi": [
    {
      "anonymous": false,
      "inputs": [
        {
          "indexed": true,
          "internalType": "address",
          "name": "_player",
          "type": "address"
        }
      ],
      "name": "Play",
      "type": "event"
    },
    {
      "anonymous": false,
      "inputs": [
        {
          "indexed": true,
          "internalType": "address",
          "name": "_from",
          "type": "address"
        },
        {
          "indexed": true,
          "internalType": "address",
          "name": "_to",
          "type": "address"
        },
        {
          "indexed": false,
          "internalType": "uint256",
          "name": "_amount",
          "type": "uint256"
        }
      ],
      "name": "Transfer",
      "type": "event"
    },
    {
      "inputs": [],
      "name": "fakeConstrucotr",
      "outputs": [],
      "stateMutability": "nonpayable",
      "type": "function"
    },
    {
      "inputs": [
        {
          "internalType": "address",
          "name": "",
          "type": "address"
        }
      ],
      "name": "isRegistered",
      "outputs": [
        {
          "internalType": "bool",
          "name": "",
          "type": "bool"
        }
      ],
      "stateMutability": "view",
      "type": "function"
    },
    {
      "inputs": [],
      "name": "owner",
      "outputs": [
        {
          "internalType": "address",
          "name": "",
          "type": "address"
        }
      ],
      "stateMutability": "view",
      "type": "function"
    },
    {
      "inputs": [],
      "name": "play",
      "outputs": [],
      "stateMutability": "nonpayable",
      "type": "function"
    },
    {
      "inputs": [],
      "name": "register",
      "outputs": [],
      "stateMutability": "payable",
      "type": "function"
    },
    {
      "inputs": [
        {
          "internalType": "address",
          "name": "",
          "type": "address"
        }
      ],
      "name": "scoreOf",
      "outputs": [
        {
          "internalType": "uint256",
          "name": "",
          "type": "uint256"
        }
      ],
      "stateMutability": "view",
      "type": "function"
    },
    {
      "inputs": [
        {
          "internalType": "address",
          "name": "_to",
          "type": "address"
        },
        {
          "internalType": "uint256",
          "name": "_amount",
          "type": "uint256"
        }
      ],
      "name": "transfer",
      "outputs": [],
      "stateMutability": "nonpayable",
      "type": "function"
    }
  ],
  "bytecode": "0x608060405234801561001057600080fd5b50610cd3806100206000396000f3fe6080604052600436106100705760003560e01c806393e84cd91161004e57806393e84cd9146100e7578063a9059cbb146100fe578063a908541314610127578063c3c5a5471461013e57610070565b8063133af456146100755780631aa3a008146100b25780638da5cb5b146100bc575b600080fd5b34801561008157600080fd5b5061009c60048036038101906100979190610814565b61017b565b6040516100a9919061085a565b60405180910390f35b6100ba610193565b005b3480156100c857600080fd5b506100d1610339565b6040516100de9190610884565b60405180910390f35b3480156100f357600080fd5b506100fc61035d565b005b34801561010a57600080fd5b50610125600480360381019061012091906108cb565b61048c565b005b34801561013357600080fd5b5061013c610749565b005b34801561014a57600080fd5b5061016560048036038101906101609190610814565b610791565b6040516101729190610926565b60405180910390f35b60026020528060005260406000206000915090505481565b60001515600160003373ffffffffffffffffffffffffffffffffffffffff1673ffffffffffffffffffffffffffffffffffffffff16815260200190815260200160002060009054906101000a900460ff16151514610226576040517f08c379a000000000000000000000000000000000000000000000000000000000815260040161021d9061099e565b60405180910390fd5b67016345785d8a0000341015610271576040517f08c379a000000000000000000000000000000000000000000000000000000000815260040161026890610a30565b60405180910390fd5b60008054906101000a900473ffffffffffffffffffffffffffffffffffffffff1673ffffffffffffffffffffffffffffffffffffffff166108fc67016345785d8a00009081150290604051600060405180830381858888f193505050501580156102df573d6000803e3d6000fd5b5060018060003373ffffffffffffffffffffffffffffffffffffffff1673ffffffffffffffffffffffffffffffffffffffff16815260200190815260200160002060006101000a81548160ff021916908315150217905550565b60008054906101000a900473ffffffffffffffffffffffffffffffffffffffff1681565b60011515600160003373ffffffffffffffffffffffffffffffffffffffff1673ffffffffffffffffffffffffffffffffffffffff16815260200190815260200160002060009054906101000a900460ff161515146103f0576040517f08c379a00000000000000000000000000000000000000000000000000000000081526004016103e790610ac2565b60405180910390fd5b600a600260003373ffffffffffffffffffffffffffffffffffffffff1673ffffffffffffffffffffffffffffffffffffffff16815260200190815260200160002060008282546104409190610b11565b925050819055503373ffffffffffffffffffffffffffffffffffffffff167f74ff4718bf0d5b38ef942dd8fd82b6a7af50cb06df94b380e3bd953df8e34a3c60405160405180910390a2565b60011515600160003373ffffffffffffffffffffffffffffffffffffffff1673ffffffffffffffffffffffffffffffffffffffff16815260200190815260200160002060009054906101000a900460ff1615151461051f576040517f08c379a000000000000000000000000000000000000000000000000000000000815260040161051690610ac2565b60405180910390fd5b80600260003373ffffffffffffffffffffffffffffffffffffffff1673ffffffffffffffffffffffffffffffffffffffff1681526020019081526020016000205410156105a1576040517f08c379a000000000000000000000000000000000000000000000000000000000815260040161059890610bb7565b60405180910390fd5b60011515600160008473ffffffffffffffffffffffffffffffffffffffff1673ffffffffffffffffffffffffffffffffffffffff16815260200190815260200160002060009054906101000a900460ff16151514610634576040517f08c379a000000000000000000000000000000000000000000000000000000000815260040161062b90610c49565b60405180910390fd5b80600260003373ffffffffffffffffffffffffffffffffffffffff1673ffffffffffffffffffffffffffffffffffffffff16815260200190815260200160002060008282546106839190610c69565b9250508190555080600260008473ffffffffffffffffffffffffffffffffffffffff1673ffffffffffffffffffffffffffffffffffffffff16815260200190815260200160002060008282546106d99190610b11565b925050819055508173ffffffffffffffffffffffffffffffffffffffff163373ffffffffffffffffffffffffffffffffffffffff167fddf252ad1be2c89b69c2b068fc378daa952ba7f163c4a11628f55a4df523b3ef8360405161073d919061085a565b60405180910390a35050565b6000339050806000806101000a81548173ffffffffffffffffffffffffffffffffffffffff021916908373ffffffffffffffffffffffffffffffffffffffff16021790555050565b60016020528060005260406000206000915054906101000a900460ff1681565b600080fd5b600073ffffffffffffffffffffffffffffffffffffffff82169050919050565b60006107e1826107b6565b9050919050565b6107f1816107d6565b81146107fc57600080fd5b50565b60008135905061080e816107e8565b92915050565b60006020828403121561082a576108296107b1565b5b6000610838848285016107ff565b91505092915050565b6000819050919050565b61085481610841565b82525050565b600060208201905061086f600083018461084b565b92915050565b61087e816107d6565b82525050565b60006020820190506108996000830184610875565b92915050565b6108a881610841565b81146108b357600080fd5b50565b6000813590506108c58161089f565b92915050565b600080604083850312156108e2576108e16107b1565b5b60006108f0858286016107ff565b9250506020610901858286016108b6565b9150509250929050565b60008115159050919050565b6109208161090b565b82525050565b600060208201905061093b6000830184610917565b92915050565b600082825260208201905092915050565b7f596f752061726520616c726561647920726567697374657265642e0000000000600082015250565b6000610988601b83610941565b915061099382610952565b602082019050919050565b600060208201905081810360008301526109b78161097b565b9050919050565b7f596f75206d7573742073656e6420302e3120657468657220746f20726567697360008201527f7465722e00000000000000000000000000000000000000000000000000000000602082015250565b6000610a1a602483610941565b9150610a25826109be565b604082019050919050565b60006020820190508181036000830152610a4981610a0d565b9050919050565b7f596f752063616e277420706c617920776974686f7574206265696e672072656760008201527f6973746572656400000000000000000000000000000000000000000000000000602082015250565b6000610aac602783610941565b9150610ab782610a50565b604082019050919050565b60006020820190508181036000830152610adb81610a9f565b9050919050565b7f4e487b7100000000000000000000000000000000000000000000000000000000600052601160045260246000fd5b6000610b1c82610841565b9150610b2783610841565b9250828201905080821115610b3f57610b3e610ae2565b5b92915050565b7f596f752063616e27742073656e64206d6f7265207468616e20796f75206f776e60008201527f2e00000000000000000000000000000000000000000000000000000000000000602082015250565b6000610ba1602183610941565b9150610bac82610b45565b604082019050919050565b60006020820190508181036000830152610bd081610b94565b9050919050565b7f596f752063616e27742073656e64206d6f6e657920746f2061206e6f6e2d726560008201527f6769737465726564206163636f756e742e000000000000000000000000000000602082015250565b6000610c33603183610941565b9150610c3e82610bd7565b604082019050919050565b60006020820190508181036000830152610c6281610c26565b9050919050565b6000610c7482610841565b9150610c7f83610841565b9250828203905081811115610c9757610c96610ae2565b5b9291505056fea2646970667358221220decb44e88813847e8b5a5dc22984a321792b0fffd9b6a45b9f664a283115bc6164736f6c63430008110033",
  "linkReferences": {},
  "deployedLinkReferences": {}
}